:1000000000800020250600001D0600001D060000DF
:1000100080B51448144B21E05C689968DD688C4217
:100020000CD0002205E0A6180832D6E9008941E983
:1000300002898C460831AA42F5D101E004EB050C97
:100040001C696146002204E008320026002741E9CD
:1000500002670831A242F7D1143301380028DBD1FE
:1000600008F04EFF010000000C94000048F25863B5
:10007000C1F6FF731A780AB901201870704700BFE3
:1000800048F20810C1F6FF7008B503682BB140F2C2
:100090000003C0F2000303B1984708BD0000000050
:1000A000B0B500AF4FF0010001F0DEFB48F26C6329
:1000B000C1F6FF731B68DBB2184600F077FE48F20A
:1000C0007063C1F6FF731B684FF0000214461846B8
:1000D0004B4904F015F90346002B02D04FF0010301
:1000E0001C46E3B2002B05D048F23013C1F6FF7373
:1000F000444A1A6048F23013C1F6FF73196848F297
:100100007463C1F6FF731A6848F26463C1F6FF7343
:100110001B68084611461A4600F016F9024648F2D6
:100120006463C1F6FF731A6048F26463C1F6FF733B
:100130001A6848F26863C1F6FF731A6048F2686390
:10014000C1F6FF731B68184604F0EEF80346184624
:1001500003F06EFA02460B461046194626A3D3E971
:10016000002303F0DBFA02460B4614461D4648F214
:100170002C13C1F6FF731B68184603F07BFA024686
:100180000B462046294603F0F3FB02460B46104679
:10019000194603F085FD024648F26C63C1F6FF7311
:1001A0001A6048F26C63C1F6FF731B68FE2B06D918
:1001B00048F26C63C1F6FF734FF0FE021A6048F21A
:1001C0007063C1F6FF731A6848F23413C1F6FF7307
:1001D0001B681046194603F0D9FD03461A4648F23B
:1001E0007063C1F6FF731A604FF0000001F03CFB32
:1001F000B0BD00BFAFF300800000000000C06F4042
:100200000000F0410000FA4480B500AF00F0CCFAE5
:1002100000F060FD00F00AFE01F08CF900F082FFB2
:1002200040F2A100C0F2000000F094FF01F070F86D
:1002300080BD00BF80B500AFFFF7E6FF62B64FF0AC
:1002400000004FF0000100F0C5FA48F6E070C0F27F
:10025000000000F0F9FA48F23013C1F6FF731B6892
:10026000184603F007FA02460B4648F2C460C1F68E
:10027000FF7048F6E471C0F2000104F0A7F94FF0F6
:1002800000004FF0030100F0A5FA48F2C460C1F687
:10029000FF7000F0D9FA4FF001004FF0000100F0BC
:1002A00099FA48F6EC70C0F2000000F0CDFA4FF079
:1002B00001004FF0020100F08DFA48F26863C1F6C8
:1002C000FF731B68184603F0D5F902460B4648F247
:1002D000C460C1F6FF7048F6E471C0F2000104F09A
:1002E00075F948F2C460C1F6FF7000F0ADFA4FF046
:1002F00000004FF0090100F06DFA48F6F070C0F20E
:10030000000000F0A1FA48F27463C1F6FF731B68A5
:10031000184603F0AFF902460B4648F2C460C1F636
:10032000FF7048F6E471C0F2000104F04FF94FF09D
:1003300000004FF00B0100F04DFA48F2C460C1F626
:10034000FF7000F081FA7AE72DE9B04F8EB000AF70
:1003500078613961FA60F86800F02CF903461846B4
:1003600003F076F904460D4648F21413C1F6FF7304
:100370001B68184603F07EF902460B4610461946E4
:100380004FF000024FF07E5303F5C00303F0C6F9AF
:1003900002460B469046994648F21813C1F6FF7381
:1003A0001B68184603F066F902460B46404649466C
:1003B00003F0B4F902460B469046994648F21C13E6
:1003C000C1F6FF731B68184603F054F902460B464A
:1003D0004046494603F0A2F902460B46904699462C
:1003E000F86803F047F902460B461046194603F039
:1003F00095F902460B464046494603F08FF90246FE
:100400000B462046294603F089F902460B46104662
:10041000194603F065FC0346FB61F86800F0CAF872
:100420000346184603F014F904460D4648F20C132F
:10043000C1F6FF731A6848F22413C1F6FF731B68F4
:100440001046194603F0AAFD0346184603F012F9B8
:100450008046894648F22013C1F6FF731B68184690
:1004600003F008F982468B4648F26063C1F6FF73D9
:100470001B68184603F0FEF8C7E90001F86803F0AE
:10048000F9F802460B461046194603F047F90246B2
:100490000B46D7E9000103F041F902460B465046EE
:1004A000594602F089FF02460B464046494603F092
:1004B00035F902460B462046294603F02FF902463D
:1004C0000B461046194603F00BFC03463B6248F20C
:1004D0000C13C1F6FF731A6848F22413C1F6FF73B8
:1004E0001B681046194603F059FD0346184603F0F1
:1004F000C1F804460D46386903F0BCF802460B46C5
:100500001046194601F0B0FC02460B46204629462B
:1005100003F004F902460B461046194603F0E0FBCF
:1005200003467B62F869396A03F030FC03461846DB
:10053000796A03F02BFC0346BB6248F22813C1F62C
:10054000FF731B687869194603F0DCFD0346FB6204
:10055000F86AB96A03F018FC03461C4648F20C130B
:10056000C1F6FF731A6848F21013C1F6FF731B68D7
:100570001046194603F012FD03462046194603F0C3
:10058000C1FD03463B6348F23413C1F6FF731B6899
:100590001846396B03F002FD03461846F96803F06C
:1005A000F5FB03467B637B6B184607F13807BD46B6
:1005B000BDE8B08F90B583B000AF78604FF0000316
:1005C0001C467868144903F0A5FE0346002B02D0B0
:1005D0004FF001031C46E3B2002B02D04FF00103A1
:1005E00014E04FF000031C4678680B4903F074FEDA
:1005F0000346002B02D04FF001031C46E3B2002B50
:1006000002D04FF0FF3301E04FF00003184607F12E
:100610000C07BD4690BD00BF0000000080B400AFD5
:10062000FEE700BF054B1C7844F001041C70044B2E
:100630001A78D2B2034B1A70FFF7EAFCE846004082
:10064000F8460040BC76004080B582B000AF4EF660
:100650000C53CEF2000340F20042C0F2FA521A608C
:100660004EF61453CEF200034EF61452CEF20002B0
:10067000126842F400721A604FF000037B6019E0C8
:1006800079687B68032B07D87A6840F20003C0F2D0
:10069000000353F8223003E040F21D63C0F2000370
:1006A00048F20002C1F6FF7242F821307B6803F184
:1006B00001037B607B682F2BE2D947F2BC63C4F255
:1006C00000031B78DAB248F2DA63C1F6FF731A70DE
:1006D0004EF60853CEF2000348F20002C1F6FF7254
:1006E0001A6001F087FA48F20013C1F6FF734FF069
:1006F00000021A6007F10807BD4680BD80B500AF53
:100700004FF0280000F088FE4FF0030000F048FA98
:100710004FF0050000F080FE4FF0030000F040FABB
:100720004FF00F0000F078FE4FF0030000F038FAB1
:100730004FF0010000F070FE4FF0020000F030FAC0
:100740004FF0050000F068FE4FF0060000F0B8F82A
:100750004FF00E0000F0B4F84FF02C0000F0B0F8AD
:100760004FF0080000F0ACF84FF0010000F0A8F8DE
:100770004FF00C0000F0A4F84FF0030000F0A0F8D8
:100780004FF0050000F048FE80BD00BF80B500AF0F
:100790004FF00C0000F094F848F27863C1F6FF7354
:1007A0004FF001021A7080BD80B500AF48F2796346
:1007B000C1F6FF731B78002B08D1FFF79FFF48F2AB
:1007C0007963C1F6FF734FF001021A70FFF7DEFF85
:1007D00080BD00BF80B582B000AF02460B46FA7103
:1007E000BB71FB79032B2AD801A252F823F000BF7A
:1007F0000108000011080000210800003108000075
:10080000BB79A3F18003DBB2184600F059F816E07B
:10081000BB79A3F14003DBB2184600F051F80EE0BB
:10082000BB79A3F16C03DBB2184600F049F806E08F
:10083000BB79A3F12C03DBB2184600F041F807F1B5
:100840000807BD4680BD00BF80B584B000AF7860AA
:100850004FF00103BB737B681B78FB730CE0FB7BE1
:10086000184600F011F8BA7B7B6813441B78FB73C1
:10087000BB7B03F10103BB73FB7B002BEFD107F1C3
:100880001007BD4680BD00BF80B584B000AF0346F1
:10089000FB7100F031F8FB794FEA1313FB73FB7B1C
:1008A000184600F027F9FB7903F00F03FB73FB7B7D
:1008B000184600F01FF907F11007BD4680BD00BFC4
:1008C00080B584B000AF0346FB7100F015F8FB79EA
:1008D0004FEA1313FB73FB7B184600F061F9FB79B9
:1008E00003F00F03FB73FB7B184600F059F907F187
:1008F0001007BD4680BD00BF80B582B000AF45F295
:100900002013C4F2000345F22012C4F20002127850
:10091000D2B202F080021A7045F22213C4F2000330
:100920001B78DBB223F00F03FB7145F22213C4F2F4
:100930000003FA7942F00F02D2B21A7045F2231383
:10094000C4F200031B78DBB223F00F03FB7145F206
:100950002313C4F20003FA791A7045F22413C4F287
:1009600000031B78DBB223F00F03FB7145F2241365
:10097000C4F20003FA791A7045F22013C4F200039E
:1009800045F22012C4F200021278D2B202F0DF0265
:100990001A7045F22013C4F2000345F22012C4F28B
:1009A00000021278D2B242F04002D2B21A704FF076
:1009B000000000F055FD45F22013C4F2000345F29B
:1009C0002012C4F200021278D2B242F01002D2B267
:1009D0001A704FF0010000F043FD45F22113C4F2FC
:1009E00000031B78FB7145F22013C4F2000345F2AB
:1009F0002012C4F200021278D2B202F0EF021A7092
:100A00004FF0000000F02CFDFB7903F00803FB71B0
:100A100045F22013C4F2000345F22012C4F2000292
:100A20001278D2B242F01002D2B21A704FF0010026
:100A300000F016FD45F22013C4F2000345F2201227
:100A4000C4F200021278D2B202F0EF021A70FB79FF
:100A5000002BACD145F22013C4F2000345F2201262
:100A6000C4F200021278D2B202F0BF021A7045F24C
:100A70002013C4F2000345F22012C4F200021278DF
:100A8000D2B202F080021A7045F22213C4F20003BF
:100A900045F22212C4F200021278D2B202F0F00241
:100AA0001A7045F22313C4F200031B78DBB223F063
:100AB0000F03FB7145F22313C4F20003FA7942F0ED
:100AC0000F02D2B21A7045F22413C4F200031B784D
:100AD000DBB223F00F03FB7145F22413C4F20003D1
:100AE000FA7942F00F02D2B21A7007F10807BD4638
:100AF00080BD00BF80B582B000AF0346FB71FFF739
:100B0000FBFE45F22013C4F2000345F22012C4F2AA
:100B100000021278D2B242F02002D2B21A7045F22C
:100B20002013C4F2000345F22012C4F2000212782E
:100B3000D2B202F0BF021A7045F22013C4F20003D1
:100B400045F22012C4F200021278D2B202F0F00292
:100B50001A7045F22013C4F2000345F22012C4F2C9
:100B600000021278D1B2FA7941EA0202D2B242F01E
:100B70001002D2B21A704FF0010000F071FC45F281
:100B80002013C4F2000345F22012C4F200021278CE
:100B9000D2B202F0EF021A7007F10807BD4680BD1D
:100BA00080B582B000AF0346FB7145F22013C4F25A
:100BB000000345F22012C4F200021278D2B202F011
:100BC0009F021A7045F22013C4F2000345F220126E
:100BD000C4F200021278D2B202F0F0021A7045F2AA
:100BE0002013C4F2000345F22012C4F2000212786E
:100BF000D1B2FA7941EA0202D2B242F01002D2B284
:100C00001A704FF0010000F02BFC45F22013C4F2E3
:100C1000000345F22012C4F200021278D2B202F0B0
:100C2000EF021A7007F10807BD4680BD80B500AF1E
:100C300045F62403C4F200034FF000021A7045F693
:100C40002503C4F200034FF000021A704FF00000B9
:100C500000F082F84FF0000000F056F880BD00BFB1
:100C600080B400AF44F2A833C4F2000344F2A832C7
:100C7000C4F200021278D2B242F00202D2B21A706A
:100C800044F2B833C4F2000344F2B832C4F20002B2
:100C90001278D2B242F00202D2B21A7048F27D63E8
:100CA000C1F6FF731B78012B10D145F62403C4F263
:100CB000000348F28062C1F6FF7252781A7048F25F
:100CC0007D63C1F6FF734FF000021A70BD4680BC11
:100CD000704700BF80B500AF48F27C63C1F6FF7378
:100CE0001B78002B08D1FFF7A1FF48F27C63C1F607
:100CF000FF734FF001021A70FFF7B2FF4FF00000D0
:100D000000F054F880BD00BF80B483B000AF03464C
:100D1000FB7145F62403C4F2000345F62402C4F235
:100D200000021278D2B202F0FD021A7045F62403D6
:100D3000C4F2000345F62402C4F200021278D1B2D4
:100D4000FA7902F0020241EA0202D2B21A7007F105
:100D50000C07BD4680BC704780B582B000AF03462B
:100D6000FB7145F62403C4F2000345F62402C4F2E5
:100D700000021278D2B202F0F3021A7045F6240390
:100D8000C4F2000345F62402C4F200021278D1B284
:100D9000FA7902F00C0241EA0202D2B21A7000F0B3
:100DA00023F807F10807BD4680BD00BF80B584B0B9
:100DB00000AF0346FB7100F01BFB0346FB7345F6D7
:100DC0008133C4F20003FA791A7045F68133C4F214
:100DD0000003FA791A70FB7B184600F00DFB07F14F
:100DE0001007BD4680BD00BF80B483B000AF45F69C
:100DF0002403C4F200031B78DBB203F00C034FEAB8
:100E00009303DBB203F10603FB7144F20963C4F2FE
:100E10000003FA7902F1924202F596721278D2B288
:100E20001A7007F10C07BD4680BC704780B500AF53
:100E300048F28463C1F6FF731B78002B08D100F0E1
:100E40000BF848F28463C1F6FF734FF001021A7089
:100E500000F030F880BD00BF80B500AF4FF010004B
:100E600000F09EFA4FF000004FF0070100F03CFB4D
:100E70004FF0000041F21911C0F2000100F004FB34
:100E800045F60913C4F2000345F60912C4F2000244
:100E90001278D2B242F00602D2B21A704FF00C00B1
:100EA00000F0C4F848F2D463C1F6FF734FF00002BB
:100EB0001A8080BD80B582B000AF00F099FA034679
:100EC000FB7144F2AB33C4F2000344F2AB32C4F220
:100ED00000021278D2B242F00202D2B21A7044F288
:100EE000BB33C4F2000344F2BB32C4F200021278F6
:100EF000D2B242F00202D2B21A7044F2A133C4F26A
:100F0000000344F2A132C4F200021278D2B242F0DD
:100F10000202D2B21A7044F2B133C4F2000344F2B6
:100F2000B132C4F200021278D2B242F00202D2B25E
:100F30001A7045F60B13C4F200031B78BB71BB7922
:100F400023F00C03BB71BB7943F00203BB71BB7987
:100F500043F00103BB7145F60B13C4F20003BA79E9
:100F60001A7045F60E13C4F200034FF004021A7013
:100F700045F60D13C4F2000345F60D12C4F200024B
:100F80001278D2B202F0BF021A7045F60D13C4F205
:100F9000000345F60D12C4F200021278D2B242F0FC
:100FA0002002D2B21A7045F60813C4F200034FF0C3
:100FB0000E021A7045F62F33C4F2000345F62F32A5
:100FC000C4F200021278D2B242F00802D2B21A7011
:100FD00045F60813C4F2000345F60812C4F20002F5
:100FE0001278D2B242F02002D2B21A704FF0020050
:100FF00000F036FA45F60813C4F2000345F608126D
:10100000C4F200021278D2B202F0DF021A704EF27D
:101010008023CEF200034FF001021A60FB791846DC
:1010200000F0EAF907F10807BD4680BD80B584B03D
:1010300000AF0346FB7148F28563C1F6FF73FA798E
:101040001A70FB790A2B08D00C2B02D0082B08D081
:101050000BE06FF03A03FB730EE06FF03A03FB73A3
:101060000AE06FF03A03FB7306E06FF03A03FB739C
:101070004FF0000000F0C4F945F60A13C4F2000373
:10108000FA7B1A70FB79184600F004F807F1100794
:10109000BD4680BD80B584B000AF0346FB71FB79CF
:1010A0000A2B08D00C2B02D0082B08D00BE040F6FE
:1010B000FF73FB600EE040F2FF33FB600AE04FF08D
:1010C000FF03FB6006E04FF00003FB604FF0000001
:1010D00000F096F9FB684FF47A7202FB03F3FB60B1
:1010E000FB6803F5FE6202F10F02002BB8BF134646
:1010F0004FEAE3239AB248F2D663C1F6FF731A802F
:1011000048F2D863C1F6FF734FF000021A8007F16E
:101110001007BD4680BD00BF80B400AFBD4680BC97
:10112000704700BF80B500AF00F048F841F24910A9
:10113000C0F2000000F00EF84FF0070000F01EF8BB
:1011400000F030F880BD00BF80B400AFBD4680BC69
:10115000704700BF80B485B000AF78604EF608538A
:10116000CEF200031B68FB60FB6803F148037A685A
:101170001A6007F11407BD4680BC704780B483B085
:1011800000AF0346FB714EF20243CEF20003FA7940
:101190004FEA4212D2B21A7007F10C07BD4680BC6A
:1011A000704700BF80B400AF4EF20013CEF20003D0
:1011B0004FF004021A60BD4680BC704780B400AF97
:1011C0004EF28013CEF200034FF004021A60BD46C7
:1011D00080BC704780B500AF44F60073C4F20003D2
:1011E00044F60072C4F200021278D2B202F0010298
:1011F0001A7044F60173C4F2000344F60172C4F29B
:1012000000021278D2B202F0F1021A7044F60A73A8
:10121000C4F2000344F60A72C4F200021278D2B299
:1012200002F0CF021A7044F60A73C4F2000344F6C7
:101230000A72C4F200021278D2B242F03002D2B284
:101240001A7044F60A73C4F2000344F60A72C4F238
:1012500000021278D2B202F0F0021A7044F60A7359
:10126000C4F2000344F60A72C4F200021278D2B249
:1012700042F00F02D2B21A7044F60173C4F20003B6
:1012800044F60172C4F200021278D2B242F00102B6
:10129000D2B21A704FF0630000F060F84FF06300B4
:1012A00000F06EF84FF0080000F048F880BD00BF75
:1012B00080B400AF44F2A333C4F2000344F2A3327B
:1012C000C4F200021278D2B242F00102D2B21A7015
:1012D00044F2B333C4F2000344F2B332C4F2000266
:1012E0001278D2B242F00102D2B21A7044F6007300
:1012F000C4F2000344F60072C4F200021278D2B2C3
:1013000042F00102D2B21A70BD4680BC704700BFE5
:1013100080B500AF48F28663C1F6FF731B78002BDF
:1013200008D1FFF757FF48F28663C1F6FF734FF00D
:1013300001021A70FFF7BCFF80BD00BF80B483B00C
:1013400000AF0346FB7144F60873C4F20003FA7958
:101350001A7007F10C07BD4680BC704780B485B099
:1013600000AF0346FB71FB79FB8144F60273C4F2C4
:101370000003FA891A8007F11407BD4680BC704744
:1013800080B483B000AF0346FB7144F60473C4F22B
:101390000003FA791A8007F10C07BD4680BC70473C
:1013A00080B483B000AF0346FB7144F20613C4F26D
:1013B000000344F20612C4F200021278D2B21146BF
:1013C000FA79D2B202F0F80241EA0202D2B2D2B203
:1013D0001A7007F10C07BD4680BC70470000000082
:1013E0000230800803D000BF01380046FCD17047AE
:1013F000EFF3108072B6704780F31088704700BF1B
:1014000080B483B000AF0346FB7101BE07F10C0747
:10141000BD4680BC704700BF80B582B000AF786029
:101420000BE048F24413C1F6FF731B681846FFF740
:10143000D7FF7B68A3F500437B607B68B3F5004F63
:10144000EFD848F23C13C1F6FF731B687A6802FBC1
:1014500003F31846FFF7C4FF07F10807BD4680BD38
:1014600080B582B000AF0346FB80FA8848F2401393
:10147000C1F6FF731B7803FB02F31846FFF7B0FFBA
:1014800007F10807BD4680BD80B584B000AF0346B4
:101490003960FB714EF60853CEF200031B68FB6007
:1014A000FB791F2B03D94FF00000FFF7A9FFFB7951
:1014B00003F01F0303F110034FEA8302FB68134498
:1014C0001B68BB60FB7903F01F0303F110034FEAB5
:1014D0008302FB6813443A681A60BB68184607F138
:1014E0001007BD4680BD00BF80B582B000AF024688
:1014F0000B46FA71BB71BB79072B03D94FF0000083
:10150000FFF77EFFFB791F2B03D94FF00000FFF799
:1015100077FFFB7903F01F0303F1604303F5644396
:10152000BA794FEA4212D2B21A7007F10807BD46E3
:1015300080BD00BF80B500AF48F28763C1F6FF737E
:101540001B78002B08D100F00BF848F28763C1F636
:10155000FF734FF001021A7000F030F880BD00BF39
:1015600080B500AF4FF0100000F060F94FF00100BF
:101570004FF00701FFF7B8FF4FF0010041F62101DE
:10158000C0F20001FFF780FF45F60113C4F200032B
:1015900045F60112C4F200021278D2B242F00602FD
:1015A000D2B21A704FF00C0000F0C4F848F2DE63BB
:1015B000C1F6FF734FF000021A8080BD80B582B083
:1015C00000AFFFF715FF0346FB7144F2AB33C4F2E3
:1015D000000344F2AB32C4F200021278D2B242F0FD
:1015E0000102D2B21A7044F2BB33C4F2000344F2D7
:1015F000BB32C4F200021278D2B242F00102D2B27F
:101600001A7044F2A133C4F2000344F2A132C4F2CE
:1016100000021278D2B242F00102D2B21A7044F241
:10162000B133C4F2000344F2B132C4F200021278C2
:10163000D2B242F00102D2B21A7045F60313C4F2DC
:1016400000031B78BB71BB7923F00C03BB71BB7922
:1016500043F00203BB71BB7943F00103BB7145F654
:101660000313C4F20003BA791A7045F60613C4F2E4
:1016700000034FF004021A7045F60513C4F200038C
:1016800045F60512C4F200021278D2B202F0BF028F
:101690001A7045F60513C4F2000345F60512C4F2AC
:1016A00000021278D2B242F02002D2B21A7045F68D
:1016B0000013C4F200034FF00E021A7045F62733F0
:1016C000C4F2000345F62732C4F200021278D2B207
:1016D00042F00802D2B21A7045F60013C4F20003B9
:1016E00045F60012C4F200021278D2B242F0200293
:1016F000D2B21A704FF00200FFF7B2FE45F60013A7
:10170000C4F2000345F60012C4F200021278D2B20D
:1017100002F0DF021A704EF28023CEF200034FF087
:1017200002021A60FB791846FFF766FE07F1080708
:10173000BD4680BD80B584B000AF0346FB7148F262
:101740008863C1F6FF73FA791A70FB790A2B08D007
:101750000C2B02D0082B08D00BE06FF03A03FB7380
:101760000EE06FF03A03FB730AE06FF03A03FB738D
:1017700006E06FF03A03FB734FF00000FFF740FE06
:1017800045F60213C4F20003FA7B1A70FB7918467F
:1017900000F004F807F11007BD4680BD80B584B0A5
:1017A00000AF0346FB71FB790A2B08D00C2B02D04B
:1017B000082B08D00BE040F6FF73FB600EE040F210
:1017C000FF33FB600AE04FF0FF03FB6006E04FF0E1
:1017D0000003FB604FF00000FFF712FEFB684FF4C0
:1017E0007A7202FB03F3FB60FB6803F5FE6202F111
:1017F0000F02002BB8BF13464FEAE3239AB248F218
:10180000E063C1F6FF731A8048F2DC63C1F6FF7330
:101810004FF000021A8007F11007BD4680BD00BFDF
:1018200080B400AFBD4680BC704700BF80B483B0B9
:1018300000AF0346FB7144F20213C4F2000344F20A
:101840000212C4F200021278D2B21146FA79D2B270
:1018500002F0F80241EA0202D2B2D2B21A7007F1E3
:101860000C07BD4680BC704780B485B000AF03460E
:10187000FB7145F20013C4F200031B78DBB223F0C6
:101880000103FB7345F20013C4F20003FA7902F07E
:101890000102F97B42EA0102D2B21A7007F1140781
:1018A000BD4680BC704700BF80B485B000AF786093
:1018B00039607B68BB604FF00003FB6009E0BA68E9
:1018C000FB6813444FF000021A70FB6803F1010338
:1018D000FB60FA683B689A42F1D307F11407BD46F2
:1018E00080BC704780B582B000AF7860396078689E
:1018F0004FF000013A6802F0FFFD07F10807BD460E
:1019000080BD00BF80B584B000AFF860B9607A6078
:10191000F868B9687A6802F027FD07F11007BD463C
:1019200080BD00BF80B487B000AF786039604FF0F1
:101930000003FB604FF00003BB602CE0BB684FEA84
:1019400083027B6813441B683B613B69FB753B6901
:1019500023F0FF033B6117E0FB684FEA43023B685B
:1019600013441B781A463B691344FA684FEA420154
:101970003A680A4452781A70FB6803F10103FB606D
:10198000FB7D03F1FF33FB75FB7D002BE4D1BB68CE
:1019900003F10103BB60BB68132BCFD907F11C0710
:1019A000BD4680BC704700BF80B500AF44F28003E5
:1019B000C4F2000340F6B7321A8044F28203C4F244
:1019C00000034FF019021A7044F20010C4F2000034
:1019D00040F2C001C4F600014FF00802FFF792FF89
:1019E00044F20033C4F200034FF002021A7044F2D2
:1019F0000003C4F200034FF008021A7044F20023FF
:101A0000C4F200034FF003021A7044F2A163C4F25F
:101A1000000340F20812C4F600121278D2B21A7013
:101A200044F22223C4F200034FF008021A8044F269
:101A30002023C4F2000341F251021A8040F6B8306C
:101A4000FFF7CEFC44F20403C4F200034FF003029C
:101A50001A7044F20503C4F200034FF001021A7039
:101A600044F20403C4F200034FF000021A7044F27F
:101A70000403C4F200034FF007021A7044F2060395
:101A8000C4F200034FF000021A7044F20803C4F2DB
:101A900000034FF048021A7044F20403C4F200033A
:101AA0004FF000021A7044F20103C4F200034FF039
:101AB00002021A7044F20B03C4F200034FF0040256
:101AC0001A7044F2A233C4F2000344F2A232C4F208
:101AD00000021278D2B242F00102D2B21A7044F27D
:101AE000A133C4F2000344F2A132C4F2000212781E
:101AF000D2B242F00302D2B21A7080BD80B400AFFD
:101B000044F2AA33C4F200034FF444721A8045F23F
:101B10001C13C4F200034FF4A2521A8045F62003AE
:101B2000C4F200034FF01E021A7045F62403C4F2FB
:101B300000034FF01E021A7045F62803C4F200039A
:101B40004FF01E021A7045F62C03C4F200034FF04A
:101B50001E021A7045F60013C4F2000348F2C002D8
:101B60001A8045F60313C4F200034FF00C021A70FA
:101B700045F60813C4F2000348F2C0021A8045F685
:101B80000B13C4F200034FF00C021A7045F68B23BE
:101B9000C4F200034FF001021A7045F62033C4F27C
:101BA00000034FF004021A7045F62333C4F2000319
:101BB0004FF020021A7045F62833C4F200034FF0AC
:101BC00001021A7045F62B33C4F200034FF02002D5
:101BD0001A7045F65833C4F200034FF004021A702D
:101BE00045F67603C4F200034FF044021A70BD4676
:101BF00080BC704780B582B000AF72B644F6000377
:101C0000C4F200034FF000021A70FFF7CDFE44F655
:101C10000003C4F200036FF07F021A7047F2100352
:101C2000C4F200034FF000021A7047F22003C4F21E
:101C300000034FF000021A7045F67C03C4F2000363
:101C40004FF001021A7044F2E863C4F2000344F258
:101C5000E862C4F200021278D2B242F00102D2B2BB
:101C60001A704FF00003FB702FE0FA7813464FEA2A
:101C7000430313444FEA43031A4648F6F473C0F291
:101C8000000313447B607B681A7859784FEA01217E
:101C900041EA020299784FEA014141EA0202DB7807
:101CA0004FEA036343EA02031A467B6819795B79BA
:101CB0004FEA032343EA01039BB210461946FFF79C
:101CC00011FEFB7803F10103FB70FB78072BCCD9E5
:101CD0004FF0904040F25001C4F60001FFF722FEA1
:101CE00045F20020C4F200004FF00701FFF7DCFDD1
:101CF00045F20820C4F200004FF00701FFF7D4FDC1
:101D000045F21020C4F200004FF00701FFF7CCFDB0
:101D100045F21820C4F200004FF00701FFF7C4FDA0
:101D200045F22020C4F200004FF00701FFF7BCFD90
:101D300045F22820C4F200004FF00701FFF7B4FD80
:101D400045F23020C4F200004FF00701FFF7ACFD70
:101D500045F26020C4F200004FF00601FFF7A4FD39
:101D600045F27820C4F200004FF00701FFF79CFD18
:101D700045F20303C4F2010345F20302C4F2010277
:101D80001278D2B242F00202D2B21A7045F21303B4
:101D9000C4F2010345F21302C4F201021278D2B276
:101DA00042F00202D2B21A7044F2A033C4F200032D
:101DB00044F2A032C4F200021278D2B242F04002E1
:101DC000D2B21A7044F2C233C4F2000344F2C232F7
:101DD000C4F200021278D2B242F01002D2B21A70EB
:101DE00045F20210C4F2000040F2A801C4F600015E
:101DF0004FF00802FFF786FD45F21210C4F2000012
:101E000040F2B001C4F600014FF00802FFF77AFD7E
:101E100045F22210C4F2000040F2B801C4F60001FD
:101E20004FF00802FFF76EFDFFF768FE44F2B03096
:101E3000C4F2000044F2A031C4F200014FF00C02E1
:101E4000FFF760FD44F2B033C4F2000344F2B03255
:101E5000C4F200021278D2B202F0FD021A7007F149
:101E60000807BD4680BD00BF42F2FB1321F0004CC5
:101E7000C3F6E9739C45F0B5044687B00D460646A7
:101E80000F461EDD4FF6FF73C7F6EF739C4505DD69
:101E900002460B4601F08EFA07B0F0BD02AA00F030
:101EA00033F800F0030001281DD0022810D008BB31
:101EB0000123DDE902010093DDE9042300F034FF92
:101EC000EAE7002200230024009400F02DFFE3E75E
:101ED0000123DDE902010093DDE9042300F024FF82
:101EE00001F10041D8E7DDE90201DDE9042300F05A
:101EF00017FAD1E7DDE90201DDE9042300F010FA69
:101F000001F10041C8E700BF42F2FB132DE9F04F99
:101F1000C3F6E97321F000468DB09E4282468B469F
:101F20000D46144640F39E804DF67B13C4F2020327
:101F30009E4226DC0029DDA3D3E9002340F3618122
:101F400001F038FA42F2FB13C3F6F9739E42804661
:101F5000894600F09C80D2A3D3E90023012701F039
:101F600029FA02460B46C4E900014046494601F001
:101F700021FACBA3D3E9002301F01CFAC4E9020142
:101F800077E042F2FB13C4F239139E4240F39C8087
:101F90004FF6FF73C7F6EF739E426EDC4FEA26588A
:101FA0000246A8F582680DF11809A8F10608032772
:101FB000A6EB0853CDE90223194609F1080601F002
:101FC00047FE083E01F044FB02460B46CDE9060100
:101FD000DDE9020101F0EEF940F200030022C4F253
:101FE000701301F09BFBCDE9040101F031FE01F01B
:101FF0002FFB02460B46CDE90801DDE9040101F0A3
:10200000D9F940F200030022C4F2701301F086FBFC
:1020100000220023CDE90A0101F0E8FD48B1D6E92C
:10202000020100220023013F083E01F0DFFD0028ED
:10203000F5D19D4E3B464846424621460196022632
:10204000009600F095FA002D074612DA04F1080315
:1020500062687F4202F1004262605A6802F1004207
:102060005A6006E00027C2E900AB00230022C4E961
:10207000022338460DB0BDE8F08F02460B4601F052
:1020800099F90027C4E90001C4E90201F1E77CA342
:10209000D3E90023012701F08DF97BA3D3E90023C5
:1020A0008046894601F086F902460B46C4E90001E4
:1020B0004046494601F07EF973A3D3E9002301F0BD
:1020C00079F9C4E90201D4E700F0E6FE70A3D3E990
:1020D00000238046894601F021FB40F200030022E4
:1020E000C3F6E07301F068F901F0B2FD074601F0B4
:1020F000AFFA69A3D3E90023CDE9020101F00EFB99
:1021000002460B464046494601F056F964A3D3E91E
:10211000002380468946DDE9020101F0FFFA1F2F06
:1021200082468B4621DC49F224037A1EC0F200036A
:1021300053F82230B34218D052465B4640464946D7
:1021400001F038F902460B46C4E9002340464946EF
:1021500001F030F95B46524601F02CF9002D04F1F4
:102160000803C4E9020184DA72E752465B4640463E
:10217000494601F01FF936150B46C1F30A51711A91
:1021800002461029C4E90023E0DD3DA3D3E9002382
:10219000DDE9020101F0C2FA82468B4652465B46F7
:1021A0004046494601F006F9CDE904014046DDE923
:1021B0000423494601F0FEF852465B4601F0FAF866
:1021C00031A3D3E9002380468946DDE9020101F00D
:1021D000A5FA42464B4601F0EDF882468B46524640
:1021E0005B46DDE9040101F0E5F80B46C1F30A5155
:1021F000761A0246312EC4E900235BDCDDE904894E
:10220000A4E701F0D9F842F2FB13C3F6F9739E423A
:102210008046894616D022A3D3E900234FF0FF372A
:1022200001F0CAF802460B46C4E90001404649469F
:1022300001F0C0F81AA3D3E9002301F0BDF8C4E906
:10224000020116E70EA3D3E900234FF0FF3701F098
:10225000B3F80DA3D3E900238046894601F0ACF81A
:1022600002460B46C4E900014046494601F0A2F887
:1022700005A3D3E9002301F09FF8C4E90201F8E6C1
:102280000000601A61B4D03D7370032E8A19A33B1D
:1022900083C8C96D305FE43F00004054FB21F9BFA3
:1022A0003163621A61B4D03DA49000000000405434
:1022B000FB21F93F16A3D3E90023DDE9020101F078
:1022C0002DFA82468B4652465B46DDE9040101F059
:1022D00071F88046894642464B46DDE9040101F02B
:1022E00069F852465B4601F065F80BA3D3E9002379
:1022F00082468B46DDE9020101F010FA52465B4648
:1023000001F058F882468B4616E700BFAFF3008015
:102310000000002E8A19A33BC14920259A837B39EE
:102320002DE9F04F21F00046B6F1795F85B0804687
:10233000894692469B466FDA01F08AFC002800F03D
:10234000F98042464B464046494601F0E7F97CA3F6
:10235000D3E9002304460D4601F0E0F97AA3D3E95E
:10236000002301F029F822462B4601F0D7F978A383
:10237000D3E9002301F01EF822462B4601F0CEF9E6
:1023800075A3D3E9002301F017F822462B4601F08C
:10239000C5F973A3D3E9002301F00CF822462B46BC
:1023A00001F0BCF970A3D3E9002301F005F822463F
:1023B0002B4601F0B3F9CDE9000140F20003002201
:1023C00020462946C3F6E07301F0A8F9DDE90023B1
:1023D00006460F462046294601F0A0F952465B46C4
:1023E00004460D464046494601F098F902460B4620
:1023F0002046294600F0DEFF02460B4630463946AD
:1024000000F0D8FF0B4640F200010246C3F6F0711F
:10241000002000F0CFFF84E002460B4601F07EF979
:1024200047A3D3E9002304460D4601F077F946A3FC
:10243000D3E9002300F0C0FF22462B4601F06EF9DD
:1024400043A3D3E9002300F0B5FF22462B4601F059
:1024500065F941A3D3E9002300F0AEFF22462B46E5
:1024600001F05CF93EA3D3E9002300F0A3FF22466C
:102470002B4601F053F93CA3D3E9002300F09CFF65
:102480002B46224601F04AF943F23233C3F6D373A6
:102490009E42CDE9000190DD40F20003C3F6E973EE
:1024A0009E4241DD40F200070026C3F6D27740F29B
:1024B000000132463B460020C3F6F07100F07AFF7F
:1024C00040F200030022C3F6E073CDE9020120468A
:1024D000294601F023F932463B4600F06BFFDDE967
:1024E000002306460F462046294601F017F95246BA
:1024F0005B4604460D464046494601F00FF9024648
:102500000B462046294600F055FF02460B46304652
:10251000394600F04FFF02460B46DDE9020100F0AC
:1025200049FF05B0BDE8F08FA6F50013002216465E
:102530001F46BCE740F200010020C3F6F071F0E74F
:10254000D43888BEE9FAA8BDC4B1B4BD9EEE213E20
:10255000AD529C804F7E923E9015CB19A001FA3E61
:102560007751C1166CC1563F4C5555555555A53F31
:102570002DE9F04FADF51F7D144649F2B0158046A8
:10258000D01EA89AC0F200050A9118210C9355F8A4
:1025900022500B9500F0B0FD0C9B18220B9D013BC7
:1025A000079320EAE0700E90C34302FB0342079CAE
:1025B0002F1909921BD4041BA99862AEE71900EBEE
:1025C000840509E02868043501F042F8BC4204F1B2
:1025D0000104E6E802010AD0002CF3DA0020002111
:1025E0000435BC42E6E8020104F10104F4D10B9980
:1025F00000292FDB0C9B0DF1480BDDF81C900C9A89
:102600004FEAC30A8A180392DDF81CC0BCF1000F20
:10261000C0F2AF8162A8002400EBC90500260027A4
:1026200008EB040175E802230834D1E9000101F048
:1026300075F802460B463046394600F0BDFE54455B
:1026400006460F46ECD1039C09F10109EBE802674D
:10265000A145D9D10B999EAC8AA80DF1480C4B1E0F
:1026600089468A00CDF804C004EB830410180F9249
:10267000119410904FEAC90112AA8D18B9F1000FF8
:102680000391D5E9006730DD0024CB46C24640F215
:1026900000030022C3F670633046394601F03EF86D
:1026A00001F0D6FA00F0D4FF40F200030022CCF291
:1026B00070138046894601F031F832463B4600F0FF
:1026C0007BFE01F0C5FA0DF50A7C75E90223494647
:1026D0004CF80400404600F06FFE043406460198B2
:1026E0000F468542D3D1D946D04630463946099A5D
:1026F00000F06AFC00224FF07F5304460D4601F0C3
:102700000DF800F0CDFB40F200030022CCF22003D4
:1027100001F004F802460B462046294600F04CFE24
:102720000D46044601F094FA824600F091FF0246FD
:102730000B462046294600F03DFE099A002A06462F
:102740000F4640F3F58009F1FF339EACC2F118014A
:10275000C2F1170C04EB830353F8502C52FA01F02A
:10276000824410FA01F1521A43F8502C42FA0CF547
:10277000002D3BDDB9F1000F0AF1010A40F3AA82F6
:1027800000234FEA89001C4607E019B10124C1F17A
:102790008071D1500433834210D08AAAD158002CC2
:1027A000F3D04FF6FF720DF50A7CC0F2FF02012450
:1027B000521A4CF8032004338342EED109980028C2
:1027C00011DD012800F0BD8002280CD109F1FF3293
:1027D0009EAB03EB820252F8503C23F07F4323F47C
:1027E000400342F8503C022D00F0838030463946C9
:1027F0000022002301F0FAF9002800F0BF800B9CB2
:1028000009F1FF3084420EDC0DF50A7C00220CEB4E
:102810008903DDF840C053F8041D0A436345FAD12B
:10282000002A40F03A82119850F8503C002B40F0BA
:102830004F820F998AAA5318012253F8081C0132BB
:10284000043B0029F9D04A440D9291454BDA0E9B86
:1028500012A8039903F1010B0C9C401804900C98EA
:10286000CB44A99A09EB0403DDF834C0994602EB86
:102870008B0B4FEAC00A62AC844404EBC304CDF86E
:1028800020C00394DBF8000000F0E2FE079B039AEF
:10289000002BC2E9000129DB62AC002604EBC9056C
:1028A0000027002408EB040175E802230834D1E96D
:1028B000000100F033FF02460B463046394600F077
:1028C0007BFD544506460F46ECD1039909F10109F9
:1028D000089A0BF1040B0498083191450391E0E943
:1028E00002670490CED1DDF83490C3E600260027BD
:1028F000EBE740F2000132463B460020C3F6F071A0
:1029000000F058FD06460F46002C3FF46FAF40F232
:102910000001099A0020C3F6F07100F055FB024651
:102920000B463046394600F045FD06460F465DE74A
:1029300015D10DF51E7C0CEB890353F8545CED1595
:1029400016E709F1FF329EA901EB820252F8503CD2
:1029500023F07F4323F4000342F8503C43E740F266
:1029600000030022C3F6E07301F05EF920B90025F0
:102970003CE70026002766E60225FBE60395CDF836
:102980001CA0002840F0AA81099B304639465A42D3
:1029900000F01AFB40F200030022C4F27013044658
:1029A0000D4601F041F9002800F09B8140F2000340
:1029B0000022C3F670632046294600F0AFFE0DF5F5
:1029C0001E7C0CEB890601F043F900F041FE09F191
:1029D000010940F200030DF51E7C0022CCF27013B9
:1029E0000CEB890782468B4600F098FE0B460246A8
:1029F0002946204600F0E0FC099A1832099201F0BD
:102A000027F9594646F8500C504601F021F947F88D
:102A1000500C40F200010020099AC3F6F07100F05A
:102A2000D3FAB9F1000F06460F4658DB12AC8AAD57
:102A3000A4F1080805EB890504EBC90455F804095D
:102A400000F006FE32463B4600F068FE40F200030E
:102A50000022C3F6706364E802013046394600F094
:102A60005DFE444506460F46E8D10B9F4FF0000837
:102A7000CDF81090002FC0F20981B8F1000FC0F21C
:102A800005810DF1480C944E0CEBC9054FF0000A7E
:102A90004FF0000B002401E0444512DCD5E900238F
:102AA0000134D6E90001083500F038FE0836024648
:102AB0000B465046594600F07FFCA74282468B46A3
:102AC000EADA3AAC09F1FF3904EBC803B9F1FF3F88
:102AD00008F10108C3E900ABCCD1DDF81090A8984B
:102AE00003281CD8DFE810F0B7007D007D0023002C
:102AF00000200146039A002A00F00681E36801F1F4
:102B000000416268266803F10043A56802F10042B3
:102B10000A9C61612660A5606260E3602061DDF867
:102B20001CC00CF007000DF51F7DBDE8F08FB9F15A
:102B3000000F3AACDCDD4FEAC9073B191E461D46C3
:102B4000D3E90001CDE90401DDE9042355E90201DF
:102B500000F032FC82468B46524655E902015B4644
:102B600000F028FCDDE9042300F026FCCDE904ABED
:102B7000C5E9000165E902ABA542E5D1B9F1010F54
:102B8000B6DD3F1909F1FF35D7E900AB04EBC50508
:102B9000D5E900235046594600F00EFC8046894690
:102BA0004246D5E900014B4600F004FC02460B46C4
:102BB0005046594600F000FCC246CB46C5E902012A
:102BC00065E80289A542E3D1002004F10805014629
:102BD00076E802238046894600F0EEFBAE42F7D14C
:102BE00088E7B9F1000FC0F28B803AAC002004EB0B
:102BF000C905A4F10806014675E8022382468B4602
:102C000000F0DAFBB542F7D1039A002A43D001F174
:102C1000004C024606460A9867460B46C0E9006724
:102C2000D4E9000100F0C6FBB9F1000F09DD04EBA7
:102C3000C909F4E9022306460F4600F0BDFB4C45E6
:102C4000F7D1039A0AB101F100410A9C02460B46F2
:102C5000C4E9022363E7B9F1000F4EDB3AAD00206F
:102C600005EBC9040146083D74E8022306460F46F9
:102C700000F0A2FBAC42F7D1039A0AB101F1004186
:102C80000A9C02460B46C4E9002348E74FF0000ABD
:102C90004FF0000B15E78C46BBE70395CDF81CA061
:102CA00083000DF51E7C03EB0C02099C52F8502C9E
:102CB000183C0994FAB98AAA8146D318099A53F89C
:102CC000041D09F1FF39183A0029F8D00992A0E64D
:102CD0000122B8E5002471E5C091000009F1FF3040
:102CE000DEE720469EAB294603EB890400F0B0FFE7
:102CF00044F8500C8DE681468BE600200146BBE788
:102D000000203AAC01467FE7D4E90267024630CCA6
:102D10000B460A98C0E90423C0E90267C0E90045F0
:102D2000FDE600BF000000002DE9F04F9B4621F0BA
:102D3000004385B0B3F1795F04460D46924603DA4D
:102D400000F086FF00286FD022462B4620462946F9
:102D500000F0E4FC22462B4606460F4600F0DEFC5F
:102D600041A3D3E90023804689463046394600F026
:102D7000D5FC3FA3D3E9002300F01CFB32463B46C1
:102D800000F0CCFC3CA3D3E9002300F015FB324655
:102D90003B4600F0C3FC3AA3D3E9002300F00AFB52
:102DA00032463B4600F0BAFC37A3D3E9002300F0DB
:102DB00003FB0E9BCDE90001002B3AD040F200034B
:102DC0000022C3F6E0735046594600F0A7FCDDE947
:102DD0000023CDE902014046494600F09FFC02462F
:102DE0000B46DDE9020100F0E5FA32463B4600F011
:102DF00095FC52465B4600F0DDFA25A3D3E900239B
:102E000006460F464046494600F088FC02460B46FF
:102E10003046394600F0D0FA02460B462046294695
:102E200000F0C8FA04460D462046294605B0BDE824
:102E3000F08F02460B463046394600F06FFC14A373
:102E4000D3E9002300F0B6FA42464B4600F066FC98
:102E500002460B462046294600F0AEFA04460D46CF
:102E6000E2E700BFAFF300807CD5CF5A3AD9E53D09
:102E7000EB9C2B8AE6E55A3E7DFEB157E31DC73E2B
:102E8000D561C119A0012A3FA6F810111111813F87
:102E9000495555555555C53F21F0004319467047D2
:102EA0002DE9F047C1F30A54A4F57E740246073CAD
:102EB0000B46132C06460F460D468A46804621DCFB
:102EC000002C40DB4FF6FF7CC0F20F0C4CFA04F9EB
:102ED00009EA0105054311D039A3D3E9002300F025
:102EE0006BFA0022002300F0A9FE00283CD0002F3E
:102EF0005DDB2AEA090A002553462A461046194690
:102F0000BDE8F087332C07DDB4F5806FF6D100F013
:102F100053FA02460B46F1E74FF0FF35A4F1140CCB
:102F200025FA0CF50542E9D025A3D3E9002300F0EA
:102F300043FA0022002300F081FEA8B1002F1BDB22
:102F400026EA05050AE01EA3D3E9002300F034FABF
:102F50000022002300F072FE48B9354653462A4647
:102F600010461946BDE8F0873546BA46F6E7002F09
:102F700010DB0025AA46F1E7142C06D00126C4F187
:102F80003404A64016EB0806DAD30AF1010A26EA51
:102F90000505E3E727F0004540F2000A3543CBF68C
:102FA000F07A002D08BFBA4618BF0025D6E74FF4C7
:102FB000801353FA04F407EB040A9AE7AFF3008096
:102FC0009C7500883CE4377EC1F30A532DE9D04359
:102FD000144606460F46804689460A46002B2FD1E6
:102FE00021F00042024327D040F200030022C4F245
:102FF000503300F093FB43F6B043CFF6FF739C428F
:1030000006460F46804689463ADBC1F30A530A4614
:10301000363B40F2FE711B198B421ADD32463B46AD
:103020002BA1D1E9000100F05BF829A3D3E900232B
:1030300000F074FB06460F4630463946BDE8D083A3
:1030400040F2FF7C634526D01B1940F2FE718B4293
:10305000E4DC002BC2BF22F0FE4222F4700242EAFE
:103060000357E9DC13F1350F1FDA4CF250339C4261
:10307000D4DC32463B4618A1D1E9000100F030F81B
:1030800015A3D3E9002300F049FB06460F4630465E
:103090003946BDE8D08302460B4600F08DF906465E
:1030A0000F4630463946BDE8D083363322F0FE4223
:1030B00022F47002304642EA035740F200033946D8
:1030C0000022C3F6904300F029FB06460F46B3E703
:1030D0009C7500883CE4377E59F3F8C21F6EA50149
:1030E00003F0004321F0004230B40D46044643EAA9
:1030F000020130BC704700BF002900F03E8180EA29
:10310000010C48BF49424A1E00F01F81031C48BF02
:1031100043428B4240F21E81114200F02381B3FAF8
:1031200083F2B1FA81F0A0EB0202C2F11F0204A007
:1031300000EB02124FF00000974600BFAFF3008093
:10314000B3EBC17F00BF40EB000028BFA3EBC1730E
:10315000B3EB817F00BF40EB000028BFA3EB81737E
:10316000B3EB417F00BF40EB000028BFA3EB4173EE
:10317000B3EB017F00BF40EB000028BFA3EB01735E
:10318000B3EBC16F00BF40EB000028BFA3EBC163EE
:10319000B3EB816F00BF40EB000028BFA3EB81635E
:1031A000B3EB416F00BF40EB000028BFA3EB4163CE
:1031B000B3EB016F00BF40EB000028BFA3EB01633E
:1031C000B3EBC15F00BF40EB000028BFA3EBC153CE
:1031D000B3EB815F00BF40EB000028BFA3EB81533E
:1031E000B3EB415F00BF40EB000028BFA3EB4153AE
:1031F000B3EB015F00BF40EB000028BFA3EB01531E
:10320000B3EBC14F00BF40EB000028BFA3EBC143AD
:10321000B3EB814F00BF40EB000028BFA3EB81431D
:10322000B3EB414F00BF40EB000028BFA3EB41438D
:10323000B3EB014F00BF40EB000028BFA3EB0143FD
:10324000B3EBC13F00BF40EB000028BFA3EBC1338D
:10325000B3EB813F00BF40EB000028BFA3EB8133FD
:10326000B3EB413F00BF40EB000028BFA3EB41336D
:10327000B3EB013F00BF40EB000028BFA3EB0133DD
:10328000B3EBC12F00BF40EB000028BFA3EBC1236D
:10329000B3EB812F00BF40EB000028BFA3EB8123DD
:1032A000B3EB412F00BF40EB000028BFA3EB41234D
:1032B000B3EB012F00BF40EB000028BFA3EB0123BD
:1032C000B3EBC11F00BF40EB000028BFA3EBC1134D
:1032D000B3EB811F00BF40EB000028BFA3EB8113BD
:1032E000B3EB411F00BF40EB000028BFA3EB41132D
:1032F000B3EB011F00BF40EB000028BFA3EB01139D
:10330000B3EBC10F00BF40EB000028BFA3EBC1032C
:10331000B3EB810F00BF40EB000028BFA3EB81039C
:10332000B3EB410F00BF40EB000028BFA3EB41030C
:10333000B3EB010F00BF40EB000028BFA3EB01037C
:10334000BCF1000F48BF404270479CEA000F48BFE5
:103350004042704738BF002004BF4FEAEC7040F095
:1033600001007047B1FA81F2C2F11F02BCF1000FF7
:1033700023FA02F048BF404270470028C8BF6FF0F0
:103380000040B8BF4FF0004000F00EB80029F4D064
:103390002DE90340FFF7B3FEBDE8064002FB00F352
:1033A000A1EB0301704700BF704700BF81F00041EF
:1033B00002E000BF83F0004330B54FEA41044FEA1A
:1033C000430594EA050F08BF90EA020F1FBF54EAB5
:1033D000000C55EA020C7FEA645C7FEA655C00F051
:1033E000E2804FEA5454D4EB5555B8BF6D420CDD22
:1033F0002C4480EA020281EA030382EA000083EAA5
:10340000010180EA020281EA0303362D88BF30BD44
:1034100011F0004F4FEA01314FF4801C4CEA11319A
:1034200002D0404261EB410113F0004F4FEA0333F9
:103430004CEA133302D0524263EB430394EA050F84
:1034400000F0A780A4F10104D5F1200E0DDB02FAF3
:103450000EFC22FA05F2801841F1000103FA0EF287
:10346000801843FA05F359410EE0A5F120050EF14D
:10347000200E012A03FA0EFC28BF4CF0020C43FA7E
:1034800005F3C01851EBE37101F0004507D54FF08B
:10349000000EDCF1000C7EEB00006EEB0101B1F5DB
:1034A000801F1BD3B1F5001F0CD349085FEA300021
:1034B0004FEA3C0C04F101044FEA445212F5800F2C
:1034C00080F09A80BCF1004F08BF5FEA500C50F1C9
:1034D000000041EB045141EA050130BD5FEA4C0CAC
:1034E000404141EB010111F4801FA4F10104E9D135
:1034F00091F0000F04BF01460020B1FA81F308BF2C
:103500002033A3F10B03B3F120020CDA0C3208DDF7
:1035100002F1140CC2F10C0201FA0CF021FA02F1D2
:103520000CE002F11402D8BFC2F1200C01FA02F142
:1035300020FA0CFCDCBF41EA0C019040E41AA2BF67
:1035400001EB0451294330BD6FEA04041F3C1CDA2F
:103550000C340EDC04F11404C4F1200220FA04F04F
:1035600001FA02F340EA030021FA04F345EA0301F9
:1035700030BDC4F10C04C4F1200220FA02F001FABB
:1035800004F340EA0300294630BD21FA04F029463D
:1035900030BD94F0000F83F4801306BF81F48011D6
:1035A0000134013D4EE77FEA645C18BF7FEA655C49
:1035B00029D094EA050F08BF90EA020F05D054EA1B
:1035C000000C04BF1946104630BD91EA030F1EBF20
:1035D0000021002030BD5FEA545C05D14000494124
:1035E00028BF41F0004130BD14F580043CBF01F517
:1035F000801130BD01F0004545F0FE4141F47001FD
:103600004FF0000030BD7FEA645C1ABF19461046D7
:103610007FEA655C1CBF0B46024650EA013406BFD8
:1036200052EA033591EA030F41F4002130BD00BF97
:1036300090F0000F04BF0021704730B54FF4806454
:1036400004F132044FF000054FF0000150E700BFD5
:1036500090F0000F04BF0021704730B54FF4806434
:1036600004F1320410F0004548BF40424FF0000121
:103670003EE700BF42004FEAE2014FEA31014FEA64
:1036800002701FBF12F07F4393F07F4F81F06051B3
:10369000704792F0000F14BF93F07F4F704730B522
:1036A0004FF4607401F0004521F0004120E700BFB5
:1036B00050EA010208BF704730B54FF000050AE03C
:1036C00050EA010208BF704730B511F0004502D53D
:1036D000404261EB41014FF4806404F132045FEA3F
:1036E000915C3FF4DCAE4FF003025FEADC0C18BFE4
:1036F00003325FEADC0C18BF033202EBDC02C2F1DA
:10370000200300FA03FC20FA02F001FA03FE40EA6B
:103710000E0021FA02F11444C1E600BF70B54FF06B
:10372000FF0C4CF4E06C1CEA11541DBF1CEA13554D
:1037300094EA0C0F95EA0C0F00F0DEF82C4481EAB5
:10374000030621EA4C5123EA4C5350EA013518BFD5
:1037500052EA033541F4801143F4801338D0A0FBC2
:1037600002CE4FF00005E1FB02E506F00042E0FB6F
:1037700003E54FF00006E1FB03569CF0000F18BF75
:103780004EF0010EA4F1FF04B6F5007F64F540741D
:1037900004D25FEA4E0E6D4146EB060642EAC621B0
:1037A00041EA55514FEAC52040EA5E504FEACE2E1D
:1037B000B4F1FD0C88BFBCF5E06F1ED8BEF1004F20
:1037C00008BF5FEA500E50F1000041EB045170BD9C
:1037D00006F0004646EA010140EA020081EA0301E0
:1037E000B4EB5C04C2BFD4EB0C0541EA045170BDDC
:1037F00041F480114FF0000E013C00F3AB8014F156
:10380000360FDEBF002001F0004170BDC4F100049E
:10381000203C35DA0C341BDC04F11404C4F120051F
:1038200000FA05F320FA04F001FA05F240EA02007A
:1038300001F0004221F0004110EBD37021FA04F6B0
:1038400042EB06015EEA430E08BF20EAD37070BD6A
:10385000C4F10C04C4F1200500FA04F320FA05F0C9
:1038600001FA04F240EA020001F0004110EBD370CB
:1038700041F100015EEA430E08BF20EAD37070BD3B
:10388000C4F1200500FA05F24EEA020E20FA04F314
:1038900001FA05F243EA020321FA04F001F00041C3
:1038A00021FA04F220EA020000EBD3705EEA430E34
:1038B00008BF20EAD37070BD94F0000F0FD101F063
:1038C0000046400041EB010111F4801F08BF013C9C
:1038D000F7D041EA060195F0000F18BF704703F0DA
:1038E0000046520043EB030313F4801F08BF013D61
:1038F000F7D043EA0603704794EA0C0F0CEA13551D
:1039000018BF95EA0C0F0CD050EA410618BF52EAD6
:103910004306D1D181EA030101F000414FF00000DC
:1039200070BD50EA410606BF1046194652EA4306EA
:1039300019D094EA0C0F02D150EA013613D195EA5E
:103940000C0F05D152EA03361CBF104619460AD1A6
:1039500081EA030101F0004141F0FE4141F47001B0
:103960004FF0000070BD41F0FE4141F4780170BDA0
:1039700070B54FF0FF0C4CF4E06C1CEA11541DBF05
:103980001CEA135594EA0C0F95EA0C0F00F0A7F807
:10399000A4EB050481EA030E52EA03354FEA013134
:1039A00000F088804FEA03334FF0805545EA131347
:1039B00043EA12634FEA022245EA111545EA10650F
:1039C0004FEA00260EF000419D4208BF964244F1A6
:1039D000FD0404F5407402D25B084FEA3202B61AC5
:1039E00065EB03055B084FEA32024FF480104FF499
:1039F000002CB6EB020E75EB030E22BFB61A75460D
:103A000040EA0C005B084FEA3202B6EB020E75EB9F
:103A1000030E22BFB61A754640EA5C005B084FEA07
:103A20003202B6EB020E75EB030E22BFB61A7546D4
:103A300040EA9C005B084FEA3202B6EB020E75EBDF
:103A4000030E22BFB61A754640EADC0055EA060EA0
:103A500018D04FEA051545EA16754FEA06164FEAE3
:103A6000C30343EA52734FEAC2025FEA1C1CC0D18F
:103A700011F4801F0BD141EA00014FF000004FF01C
:103A8000004CB6E711F4801F04BF01430020B4F1DD
:103A9000FD0C88BFBCF5E06F3FF6AFAEB5EB030C95
:103AA00004BFB6EB020C5FEA500C50F1000041EB92
:103AB000045170BD0EF0004E4EEA113114EB5C045F
:103AC000C2BFD4EB0C0541EA045170BD41F4801132
:103AD0004FF0000E013C90E645EA060E8DE60CEA3A
:103AE000135594EA0C0F08BF95EA0C0F3FF43BAF57
:103AF00094EA0C0F0AD150EA01347FF434AF95EA0E
:103B00000C0F7FF425AF104619462CE795EA0C0FF1
:103B100006D152EA03353FF4FDAE1046194622E7BE
:103B200050EA410618BF52EA43067FF4C5AE50EA98
:103B300041047FF40DAF52EA43057FF4EBAE12E788
:103B40004FF0FF3C06E000BF4FF0010C02E000BF69
:103B50004FF0010C4DF804CD4FEA410C7FEA6C5C4C
:103B60004FEA430C18BF7FEA6C5C1BD001B050EAEF
:103B7000410C0CBF52EA430C91EA030F02BF90EADA
:103B8000020F0020704710F1000F91EA030F58BF99
:103B9000994208BF90422CBFD8176FEAE37040F0FB
:103BA000010070474FEA410C7FEA6C5C02D150EA99
:103BB000013C07D14FEA430C7FEA6C5CD6D152EA54
:103BC000033CD3D05DF8040B704700BF8446104619
:103BD00062468C461946634600E000BF01B5FFF718
:103BE000B7FF002848BF10F1000F01BD4DF808EDE8
:103BF000FFF7F4FF0CBF012000205DF808FB00BFB9
:103C00004DF808EDFFF7EAFF34BF012000205DF812
:103C100008FB00BF4DF808EDFFF7E0FF94BF01205F
:103C200000205DF808FB00BF4DF808EDFFF7CEFF60
:103C300094BF012000205DF808FB00BF4DF808ED9F
:103C4000FFF7C4FF34BF012000205DF808FB00BF70
:103C50004FEA410212F5001215D211D56FF47873B4
:103C6000B3EB625212D94FEAC12343F0004343EA57
:103C7000505311F0004F23FA02F018BF4042704732
:103C80004FF00000704750EA013005D111F00040BC
:103C900008BF6FF0004070474FF00000704700BF52
:103CA0004A0011D212F5001211D20DD56FF47873BB
:103CB000B3EB62520ED44FEAC12343F0004343EA10
:103CC000505323FA02F070474FF00000704750EA5B
:103CD000013002D14FF0FF3070474FF000007047C5
:103CE0004FEA4102B2F1E04324BFB3F5001CDCF11E
:103CF000FE5C0DD901F0004C4FEAC0024CEA507056
:103D0000B2F1004F40EB830008BF20F00100704784
:103D100011F0804F21D113F13872BCBF01F0004087
:103D2000704741F480114FEA5252C2F11802C2F1B9
:103D3000200C10FA0CF320FA02F018BF40F001003A
:103D40004FEAC1234FEAD32303FA0CFC40EA0C00EC
:103D500023FA02F34FEA4303CCE77FEA625307D129
:103D600050EA01331EBF4FF0FE4040F44000704760
:103D700001F0004040F0FE4040F40000704700BFFA
:103D800080F0004002E000BF81F0004142001FBF10
:103D90005FEA410392EA030F7FEA226C7FEA236C19
:103DA0006AD04FEA1262D2EB1363C1BFD21841400E
:103DB00048404140B8BF5B42192B88BF704710F0A4
:103DC000004F40F4000020F07F4018BF404211F047
:103DD000004F41F4000121F07F4118BF494292EAAF
:103DE000030F3FD0A2F1010241FA03FC10EB0C00DB
:103DF000C3F1200301FA03F100F0004302D5494268
:103E000060EB4000B0F5000F13D3B0F1807F06D314
:103E100040084FEA310102F10102FE2A51D2B1F10C
:103E2000004F40EBC25008BF20F0010040EA030001
:103E30007047490040EB000010F4000FA2F10102AE
:103E4000EDD1B0FA80FCACF1080CB2EB0C0200FA38
:103E50000CF0AABF00EBC25052421843BCBFD04086
:103E60001843704792F0000F81F4000106BF80F400
:103E700000000132013BB5E74FEA41037FEA226CC3
:103E800018BF7FEA236C21D092EA030F04D092F08E
:103E9000000F08BF0846704790EA010F1CBF0020C2
:103EA000704712F07F4F04D1400028BF40F000401F
:103EB000704712F100723CBF00F50000704700F03F
:103EC000004343F0FE4040F4000070477FEA226266
:103ED00016BF08467FEA23630146420206BF5FEA37
:103EE000412390EA010F40F4800070474FF0000337
:103EF00004E000BF10F0004348BF40425FEA000CFE
:103F000008BF704743F0964301464FF000001CE0A5
:103F100050EA010208BF70474FF000030AE000BFFB
:103F200050EA010208BF704711F0004302D5404239
:103F300061EB41015FEA010C02BF844601460020AB
:103F400043F0B64308BFA3F18053A3F50003BCFAC6
:103F50008CF2083AA3EBC25310DB01FA02FC634473
:103F600000FA02FCC2F12002BCF1004F20FA02F27A
:103F700043EB020008BF20F00100704702F120026D
:103F800001FA02FCC2F1200250EA4C0021FA02F2CE
:103F900043EB020008BF20EADC7070474FF0FF0CD3
:103FA0001CEAD0521EBF1CEAD15392EA0C0F93EACE
:103FB0000C0F6FD01A4480EA010C400218BF5FEA70
:103FC00041211ED04FF0006343EA501043EA5111E3
:103FD000A0FB01310CF00040B1F5000F3EBF4900DD
:103FE00041EAD3715B0040EA010062F17F02FD2AE1
:103FF0001DD8B3F1004F40EBC25008BF20F00100C4
:10400000704790F0000F0CF0004C08BF49024CEADA
:10401000502040EA51207F3AC2BFD2F1FF0340EA6C
:10402000C250704740F400004FF00003013A5DDCDD
:1040300012F1190FDCBF00F000407047C2F100021E
:10404000410021FA02F1C2F1200200FA02FC5FEA0B
:10405000310040F1000053EA4C0308BF20EADC7055
:10406000704792F0000F00F0004C02BF400010F4C7
:10407000000F013AF9D040EA0C0093F0000F01F074
:10408000004C02BF490011F4000F013BF9D041EA96
:104090000C018FE70CEAD15392EA0C0F18BF93EA98
:1040A0000C0F0AD030F0004C18BF31F0004CD8D1C2
:1040B00080EA010000F00040704790F0000F17BF49
:1040C00090F0004F084691F0000F91F0004F14D08F
:1040D00092EA0C0F01D142020FD193EA0C0F03D1E7
:1040E0004B0218BF084608D180EA010000F00040EA
:1040F00040F0FE4040F40000704740F0FE4040F4C5
:10410000400070474FF0FF0C1CEAD0521EBF1CEA63
:10411000D15392EA0C0F93EA0C0F69D0A2EB030281
:1041200080EA010C49024FEA402037D04FF080531B
:1041300043EA111143EA10130CF000408B4238BFE0
:104140005B0042F17D024FF4000C8B4224BF5B1AEE
:1041500040EA0C00B3EB510F24BFA3EB510340EA3C
:104160005C00B3EB910F24BFA3EB910340EA9C00EA
:10417000B3EBD10F24BFA3EBD10340EADC001B015A
:1041800018BF5FEA1C1CE0D1FD2A3FF650AF8B42FE
:1041900040EBC25008BF20F0010070470CF0004C0B
:1041A0004CEA50207F32C2BFD2F1FF0340EAC25036
:1041B000704740F400004FF00003013A37E792F0F7
:1041C000000F00F0004C02BF400010F4000F013A55
:1041D000F9D040EA0C0093F0000F01F0004C02BF50
:1041E000490011F4000F013BF9D041EA0C0195E7B9
:1041F0000CEAD15392EA0C0F08D142027FF47DAF52
:1042000093EA0C0F7FF470AF084676E793EA0C0F41
:1042100004D14B023FF44CAF08466EE730F0004C3F
:1042200018BF31F0004CCAD130F000427FF45CAFCF
:1042300031F000437FF43CAF5FE700BF4FF0FF3C3D
:1042400006E000BF4FF0010C02E000BF4FF0010C90
:104250004DF804CD4FEA40024FEA41037FEA226C59
:1042600018BF7FEA236C11D001B052EA530C18BF7B
:1042700090EA010F58BFB2EB030088BFC81738BFE0
:104280006FEAE17018BF40F0010070477FEA226CCE
:1042900002D15FEA402C05D17FEA236CE4D15FEACA
:1042A000412CE1D05DF8040B704700BF84460846FE
:1042B0006146FFE70FB5FFF7C9FF002848BF10F1BF
:1042C000000F0FBD4DF808EDFFF7F4FF0CBF012004
:1042D00000205DF808FB00BF4DF808EDFFF7EAFF8E
:1042E00034BF012000205DF808FB00BF4DF808ED49
:1042F000FFF7E0FF94BF012000205DF808FB00BF3E
:104300004DF808EDFFF7D2FF94BF012000205DF8C3
:1043100008FB00BF4DF808EDFFF7C8FF34BF0120D0
:1043200000205DF808FB00BF42000ED2B2F1FE4F44
:104330000BD34FF09E03B3EB126209D44FEA002374
:1043400043F0004323FA02F070474FF0000070473B
:1043500012F1610F01D1420202D14FF0FF307047DC
:104360004FF00000704700BF032A2DE9F0070BD87B
:104370003AB1002311F803C000F803C0013393429F
:10438000F8D1BDE8F007704782180C46034603E0F9
:1043900014F8011C03F8011C03F003061946A44697
:1043A00001330134002EF3D11CF00304634608BF2F
:1043B000C1EB020C68D06542C4F1040A0CEB05079E
:1043C00033464FEACA0A5CF805604FEAC408551A3A
:1043D00008E057F8044F264604FA0AF449EA0404B0
:1043E000CC5004335C18032D26FA08F9A5F1040516
:1043F0000CEB0306EDDC002302E0F15CE154013339
:1044000019199142F9D3BCE753F8404C41F8404C9C
:1044100053F83C4C41F83C4C53F8384C41F8384C7C
:1044200053F8344C41F8344C53F8304C41F8304C8C
:1044300053F82C4C41F82C4C53F8284C41F8284C9C
:1044400053F8244C41F8244C53F8204C41F8204CAC
:1044500053F81C4C41F81C4C53F8184C41F8184CBC
:1044600053F8144C41F8144C53F8104C41F8104CCC
:1044700053F80C4C41F80C4C53F8084C41F8084CDC
:1044800053F8044C41F8044C1C460D46403340316F
:10449000BCF13F0FACF1400CB6DC21462B46541B5F
:1044A0000FE051F8105C43F8105C51F80C5C43F8D5
:1044B0000C5C51F8085C43F8085C51F8045C43F864
:1044C000045C0F2C0D469C4601F1100103F1100312
:1044D000A4F11004E5DCCCEB0201002303E0EC586E
:1044E0004CF8034004335E19032903EB0C04A1F1DB
:1044F0000401F4DC7FE700BF032AC9B230B407D857
:1045000022B10023C15401339342FBD130BC704728
:1045100000EB020C034601E003F8011C03F0030466
:104520001A460133002CF7D14FF00133C2EB0C04D3
:1045300003FB01F31FE042F8403C42F83C3C42F8E8
:10454000383C42F8343C42F8303C42F82C3C42F8CB
:10455000283C42F8243C42F8203C42F81C3C42F8FB
:10456000183C42F8143C42F8103C42F80C3C42F82B
:10457000083C42F8043C154640323F2CA4F140046C
:10458000D9DC2A46C5EB0C0407E042F8103C42F89F
:104590000C3C42F8083C42F8043C154610320F2C03
:1045A000A4F11004F1DC2A46C5EB0C0501E042F849
:1045B000043C14460432032DA5F10405F7DC01E0A8
:1045C00004F8011B6445FBD3A0E700BF0EB448F21A
:1045D000481330B59CB01FACC1F6FF73054601A966
:1045E00054F8042B4FF0FF3C18684FF40273ADF8F9
:1045F00010302346059501956FF00045ADF812C0C7
:10460000069503951B9400F0B9F8019B00221A70DF
:104610001CB0BDE8304003B0704700BF0CB40B467F
:1046200010B59CB01EAC01A905934FF4027C54F860
:10463000042B01934FF0FF33ADF8123023461B9447
:104640006FF00044ADF810C00694039400F096F8A3
:10465000019B00221A701CB0BDE8104002B07047E8
:104660002DE9F04F85B092460C460390906817688C
:10467000002800F081804FF000090B684D46002DA6
:1046800054D0A668B542B0463EBF18462E46A8464E
:104690003CD3A08910F4906F08BF184636D06269E9
:1046A000216902EB420B5B1A03F1010C0BEBDB7B84
:1046B000AC444FEA6B0BE3455A463CBFE3465A46CF
:1046C00010F4806F37D011460398019302F0F6FB87
:1046D000019B00283BD01A46216901930290FFF705
:1046E00043FEA289019BDDF808C022F4906242F0EB
:1046F0008002A2812E46A846C3EB0B020CEB0300FE
:10470000A260C4F810C02060C4F814B04246494604
:1047100002F0E0FEA2682368961BA660DAF8082083
:1047200043442360551BCAF80850FDB1D7F80090E8
:104730007D680837A3E70398019303F0D7FB019B3B
:1047400084460028D6D10398216902F08DFA039A95
:104750000C234FF0FF3013600023A289CAF8043005
:1047600042F04002CAF80830A28102E02846CAF8A6
:10477000045005B0BDE8F08F5060FAE72DE9F04F26
:10478000C5B00E469A461546099002F053FBB38910
:1047900013F0800F00681B9003D03369002B01F0E9
:1047A0008C800DF17409B3464C4600221092002310
:1047B000189217921A920D922DAA199328320DF180
:1047C000F703169207930023CDF8DC9038933993C2
:1047D0002B78B3F1250218BF0122002B0CBF002259
:1047E00002F0010202B32E4616F8013F1A1E18BF4E
:1047F0000122252B0CBF002202F00102002AF3D176
:10480000771B08BF35460FD06760389B399A013354
:104810002560D219072B3992389379DC08340D982A
:104820003546C0190D903378002B00F037870021F2
:104830004FF00002CDF828A06B1C0C914FF0FF3810
:104840008DF80F218A466A782B204FF0200C5D1CD2
:10485000A2F12003582B00F21982DFE813F029029D
:104860001702170235021702170217021702170262
:1048700017023C0248021702C802CF021702EF02D9
:10488000F602F602F602F602F602F602F602F60268
:10489000F602170217021702170217021702170271
:1048A0001702170217024F02880217028802170226
:1048B000170217021702C10217021702EE031702AE
:1048C0001702170217021702930317021702AD030C
:1048D0001702170217021702170217021702170210
:1048E00017021702C703D8038802880288020B0345
:1048F000D803170217020F031702190329033E03F7
:104900008C03170259031702840317021702EA00E7
:104910000998594637AAFFF7A3FE00287CD14C46D8
:104920007DE71899012940F35284119A01236360AD
:10493000389B2260399A013338930132072B399220
:1049400000F39685083401236360389B399A01335C
:104950001B980132072B39922060389300F37D8534
:1049600008341098002200231999FFF73FF9002816
:1049700040F003851899119B4A1E6260591C389BB0
:1049800021603999013338938A18072B399200F343
:104990002F8408341A9A1A9862603EAA389B2260C3
:1049A000399A013338931218072B399200F34F814B
:1049B00004F108031AF0040F00F056810C990B9AC9
:1049C0008E1A002E40F35081102E49F20027D8BFD6
:1049D000C0F2000740F3DE831024C0F200070DF19F
:1049E000DC08DDF824A003E0103E102E40F3D28353
:1049F0005C60389A399901321F601031072A399169
:104A000003F108033892EFDD504659464246FFF75E
:104A100027FE4B460028E7D05E46B3890D9813F079
:104A2000400F18BF4FF0FF300D900D9845B0BDE816
:104A3000F08F1AF0200F49F24420C0F200001492C7
:104A4000179000F0C3820A99CB1D23F0070303F1EE
:104A500008020A92D3E9006756EA07010CBF002258
:104A600001221AEA020F40F0BC8402234FF0000139
:104A70008DF80F11B8F1000FA8BF2AF0800AB8F125
:104A8000000F18BF42F00102002A00F06081012BE4
:104A900000F03484022B00F017841699CDF82C8096
:104AA00011914FEAD6084FEAD70C48EA477806F04A
:104AB000070067464646303056EA070201F8010D06
:104AC000EFD11AF0010FDDF82C80119140F0DB845A
:104AD000169B5B1A0E930E9BCDF854804345B8BFCE
:104AE00043460B939DF80F3113B10B9901310B9194
:104AF0001AF00202139202D00B9B02330B931AF0AE
:104B00008400129038D10C990B9A8E1A002E33DD46
:104B1000102E49F20027D8BFC0F2000720DD4FF069
:104B20001008C0F2000702E0103E102E18DDC4F895
:104B30000480389B399A013327601032072B399251
:104B400004F108043893EFDD0998594637AA4C461A
:104B5000FFF786FD00287FF45FAF103E102EE6DCE5
:104B60006660389B27605A1C399B38929B19072A2C
:104B7000399300F3F78308349DF80F3173B10123A3
:104B80006360389B43AA03322260399A0133389319
:104B90000132072B399200F340830834139B6BB129
:104BA00002236360389B43AA2260399A0133389309
:104BB0000232072B399200F33A8308341298802886
:104BC00000F0B28215980E9BC61A002E2EDD102E14
:104BD000A74FC8BF4FF0100803DC1BE0103E102E9B
:104BE00018DDC4F80480389B399A013327601032ED
:104BF000072B399204F108043893EFDD09985946E0
:104C000037AA4C46FFF72CFD00287FF405AF103E75
:104C1000102EE6DC6660389B27605A1C399B389260
:104C20009B19072A399300F3EE8208341AF4807F27
:104C300040F019820E99119A6160389B2260399A6E
:104C4000013338935218072B39927FF7B1AE099888
:104C5000594637AAFFF704FD00287FF4DDAE1AF0AD
:104C6000040F4B467FF4AAAE399B0D980B9A0C9912
:104C70008A42ACBF801840180D90002B40F09E82F5
:104C80000023DDF828A038934C46A1E51492002AB1
:104C900000F0048501208DF8B4204FF000012DAA0A
:104CA0000B908DF80F1111920E90002115911FE7B6
:104CB0009DF80F31002B40F00C840A992B468DF89B
:104CC0000FC12A780A91C2E50A994AF0010A2A78A6
:104CD0002B460A91BBE50A9B0A9A1B68111D002B03
:104CE0000C93C0F2B2852A782B460A91AFE50A9957
:104CF0002B468DF80F012A780A91A8E54AF0100A90
:104D000014921AF0200F00F087810A98C31D23F037
:104D1000070303F108010A91D3E90067002E77F138
:104D20000000C0F2768356EA07014FF001030CBF82
:104D300000220122B8F1000FA8BF2AF0800AB8F1C2
:104D4000000F18BF42F00102002A7FF4A0AE002B32
:104D500040F0E5811AF0010F00F0E18130238DF879
:104D6000DB302DAB012027330E901193B3E61AF000
:104D7000080F149200F0BF830A98C31D23F00703A5
:104D800003F108010A915E681F681996109738466A
:104D9000314603F085FA0346002800F09384384634
:104DA000002200233146FEF72BFF002840F0158437
:104DB0009DF80F31032049F2382249F234210B903B
:104DC0001498C0F20001C0F200022AF0800A4728BD
:104DD000D8BF0A460321119200220E91159283E654
:104DE0000A994AF0080A2A782B460A912FE50A996F
:104DF0002A784AF0040A2B460A9128E52B4613F834
:104E0000012B2A2A00F0CF86A2F13001092988BFA0
:104E10004FF0000810D802354FF0000815F8012CAB
:104E200008EB88082B46013501EB4808A2F1300158
:104E30000929F3D948EAE8781D4609E50A994AF0B4
:104E4000800A2A782B460A9101E5A2F1300100265A
:104E50002B4606EB860613F8012B01EB4606A2F162
:104E600030011D460929F3D90C961D46F0E400BF18
:104E7000109200004AF0400A0A9934E72A786C2A16
:104E800000F018840A994AF0100A2B460A91DEE4D1
:104E90001AF0200F00F023830A990D9A0B68104630
:104EA0004FEAE0710A9AC3E9000102F1040A8FE4B3
:104EB0001AF02003149200F0C7800A9BDA1D002329
:104EC00022F0070202F108000A90D2E9006756EAD0
:104ED00007010CBF00220122C8E50A9A49F24420CA
:104EE0000A997823C0F200001493166804318DF8F3
:104EF0000D314AF0020A3023321E18BF01228DF80C
:104F00000C3136464FF00007179002230A91ADE5A9
:104F10000A9B14924FF00002181D8DF80F211B6898
:104F20000A901193002B00F04D85B8F1000F1198F5
:104F3000C0F22A850021424602F092FA0346002878
:104F400000F06E8511981B1A0E93434540F382843E
:104F5000CDF83880002128EAE8789DF80F31CDF8A7
:104F60002C801591C0E51AF0200F149210D00A9BE6
:104F7000DA1D0123A4E70A994AF0200A2A782B4671
:104F80000A9164E44AF0100A14921AF0200FEED14C
:104F90001AF0100F40F054821AF0400F00F05082C7
:104FA0000A980123011D0A910688321E18BF0122AA
:104FB00036464FF0000759E51AF0200F149249F2D7
:104FC0002022C0F2000217927FF43DAD1AF0100FBC
:104FD00040F02D821AF0400F00F029820A990A1D34
:104FE0000A920E8836464FF0000735E514920120EC
:104FF0000A9A4FF000010B900E90136804328DF85E
:105000000F110A922DAA8DF8B43011924DE61AF0C4
:10501000200F14927FF479AE1AF0100F40F0ED815A
:105020001AF0400F00F0E9810A98011D0A91B0F9C9
:10503000006036464FEAE67770E64AF0100A1492AE
:105040001AF020037FF439AF1AF0100200F05F82EB
:105050000A9A101D0A901668321E18BF01223646A1
:105060004FF0000702E5149B652B7FF75AAC1098B0
:10507000002200231999FEF7B9FD002800F0E18015
:1050800001236360389A49F26023C0F20003236071
:10509000399B013238920133072A3993D8BF04F182
:1050A000080300F39F82429A1898824203DB1AF0A9
:1050B000010F3FF47FAC1B9901225A60389A1960A6
:1050C0003999013238920131072A399100F3EB8383
:1050D0000833189A561E002E7FF76CAC102EA04F86
:1050E00040F3E98110240DF1DC0803E0103E102E9E
:1050F00040F3E1815C60389A399901321F601031C8
:10510000072A399103F108033892EFDD09985946CF
:105110004246FFF7A5FA4B460028E7D07CE41699F3
:1051200000220E921191D6E40C990B9A8E1A002E41
:105130007FF748AD102E8A4FC8BF4FF0100803DC30
:105140001BE0103E102E18DDC4F80480389B399AFD
:10515000013327601032072B399204F10804389389
:10516000EFDD0998594637AA4C46FFF779FA00282F
:105170007FF452AC103E102EE6DC6660389B276050
:105180005A1C399B38929B19072A399300F388815E
:10519000083417E55E60389A1F60399B01323892F7
:1051A000F318072A39937FF760AD0998594637AA53
:1051B000FFF756FA00283FF457AD2DE409985946F9
:1051C00037AAFFF74DFA00283FF45AAD24E41AF04D
:1051D000010F7FF4AAAB01236360389B399A013336
:1051E00011990132072B3992216038937FF7D1ABA7
:1051F0000998594637AAFFF733FA00287FF40CAC18
:105200004C46FFF7C7BB0998594637AAFFF728FA5B
:1052100000287FF401AC4C4608E50998594637AAA6
:10522000FFF71EFA00287FF4F7AB4C46B6E4099866
:10523000594637AAFFF714FA00287FF4EDAB4C4625
:10524000BCE4429B002B40F3D98118998B42C0F2F9
:105250006F81119A6160389B2260399A01333893CB
:105260005218072B3992D8BF04F1080300F3BA8310
:10527000429C1898241A002C40F39B81102C384F24
:1052800040F38B81CDF838A01026AA460DF1DC083A
:10529000099D03E0103C102C40F37C815E60389A3D
:1052A000399901321F601031072A399103F108033F
:1052B0003892EFDD284659464246FFF7D1F94B4672
:1052C0000028E7D0FFF7A8BB1698DDF85CC00346BE
:1052D0001190310906F00F0241EA077138091CF8F4
:1052E00002200E46074656EA070103F8012DF0D1C9
:1052F000169A1193D21A0E92FFF7EDBB00230922E2
:10530000B24273EB0700169B3EBFCDF82C80A0463F
:105310001C461AD2304639460A22002303F07CFA92
:1053200030463946002302F1300C0A2204F801CD40
:1053300003F072FA06460F4609200021B042B94137
:10534000E8D323464446DDF82C805A1E30361192AD
:1053500003F8016C169B9B1A0E93FFF7BCBB00BFB2
:10536000109200000998594637AAFFF779F90028EA
:105370007FF452AB4C46FFF7FFBB1898461E002E39
:105380007FF708AB102E9C4FC8BF4FF0100803DC0E
:105390001BE0103E102E18DDC4F80480389B399AAB
:1053A000013327601032072B399204F10804389337
:1053B000EFDD0998594637AA4C46FFF751F9002806
:1053C0007FF42AAB103E102EE6DC6660389B399ADB
:1053D000013327609219072B399238937FF7D9AAA6
:1053E00006E7149830214AF0020A012202238DF8C0
:1053F0000C118DF80D01FFF739BB0A9A131D1668C1
:105400000A9336464FEAE677002E77F10000BFF6A2
:105410008AAC764267EB47072D2356EA07028DF8E0
:105420000F310CBF002201220123FFF723BB0A9B8F
:10543000181D1E680A9036464FF00007FFF70CBB98
:105440000A9A131D16680A930123321E18BF0122FF
:1054500036464FF00007FFF709BB0998594637AAAF
:10546000FFF7FEF800287FF4D7AA4C46FFF779BA79
:105470000998594637AAFFF7F3F800287FF4CCAA19
:105480004C46FFF760BA302800F09682119A30231C
:1054900002F8013D169B11929B1A0E93FFF71BBB5E
:1054A0000998594637AAFFF7DBF800287FF4B4AA19
:1054B0004C46FFF787BB5E60389A399901321F600E
:1054C0008919072A399138923FF7C1AB0833FFF7A2
:1054D00071BA0A992B462A780A91FFF7B8B91AF0DF
:1054E000100F00F0CD810A980D9900F1040A0368AD
:1054F0001960FFF76DB90A9AD31D23F0070303F172
:1055000008000A905E681F68199610973FE41AF029
:10551000400300F0A9810A9913460A1D0A920E88D9
:10552000321E18BF012236464FF00007FFF79EBA21
:10553000119A636038992260399A01313891D318F1
:105540000729399300F3628208340123429E636085
:10555000389B399A01331B980132072B3893D8BFF7
:1055600004F108032060399200F34682429A1199AF
:1055700018988E191E60811A596039998A1A3899BB
:10558000121839920131389107293FF760AB08337F
:10559000FFF710BA5546DDF838A05C60389A3999A3
:1055A00001321F600919072A3991389200F37F826E
:1055B00008331AF0010F3FF4FDA91B9901225A602C
:1055C000389A19603999013238920131072A399194
:1055D0003FF73DAB0833FFF7EDB92D238DF80F31C1
:1055E000FFF7E8BB0998594637AAFFF739F80028B2
:1055F0007FF412AA4B4656E5109200000123636027
:10560000389A49F26023C0F200032360399B0132CB
:1056100038920133072A3993D8BF04F1080300F305
:105620007381429A2AB9189818B91AF0010F3FF4F9
:10563000C1A91B9901225A60389A1960399901321F
:1056400038920131072A399100F368810833429C6E
:105650006442002C40F38781102C9E4F40F3A081C0
:1056600010260DF1DC0803E0103C102C40F398816B
:105670005E60389A399901321F601031072A3991DA
:1056800003F108033892EFDD099859464246FEF7C8
:10569000E7FF4B460028E7D0FFF7BEB9399B5E46CF
:1056A000002B3FF4BAA90998594637AAFEF7D8FF4C
:1056B000FFF7B3B90A994AF0200A6A786B1C0A917D
:1056C000FFF7C5B838463146089302F0FBFD089B4A
:1056D000002840F00181B8F1FF3F08BF08F107083A
:1056E0000ED0149A672A14BF00230123472A08BF4B
:1056F00043F0010323B1B8F1000F08BF4FF00108D8
:1057000033463A46CDE93A234AF4807A3B9B002B54
:10571000C0F20A82002315931499662914BF00234E
:105720000123462908BF43F001031293002B00F028
:105730008A810323CDF82C800B990E970F96009346
:105740000998DDE90E23019142A9029141A9039133
:1057500040A9049100F0E8FA149AB2F1670318BF67
:105760000123472A0CBF002303F0010311902BB93A
:105770001AF0010F08BFDDF800C11AD0119B0B9879
:10578000129903EB000C29B11B78302B00F0D0806C
:10579000429B9C443846002200233146CDF820C06D
:1057A000FEF724FADDF820C0002800F07381CDF860
:1057B00000C114981199672814BF002301234728BA
:1057C00008BF43F00103C1EB0C011891002B00F05E
:1057D0004A81429A12F1030F0E9202DB904580F249
:1057E0004B81149B023B14930E9A1498531E4293C0
:1057F000002B8DF8F800C0F2D1812B228DF8F92012
:10580000092B00F362813FA930338DF8FB30302340
:105810008DF8FA303EAB189ACB1A18991A9359188A
:10582000012A0E9140F3CC810E9801300E9020EAAF
:10583000E0710B91159B002B00F0FD802D230020C3
:105840008DF80F311590FFF750B90C9B5B420C930C
:10585000FFF7CEBA0E9A00209DF80F3122EAE272CD
:1058600015900B92FFF740B90A98011D0A9106683E
:10587000321E18BF012236464FF00007FFF7F6B878
:105880001AF0400F17BF0A9A0A990D9802F1040AFC
:1058900011BF136801F1040A0B680D9A14BF188038
:1058A0001A60FEF795BF0998594637AAFEF7D8FE49
:1058B00000287FF4B1A84B460BE40998402101F081
:1058C000FDFA30603061002800F08D814023736163
:1058D000FEF767BF10920000032049F2402249F210
:1058E0003C210B901498C0F20001C0F20002159305
:1058F0004728D8BF0A462AF0800A032111929DF852
:105900000F310E91FFF7F0B80998594637AAFEF704
:10591000A7FE00287FF480A84B4682E609985946E6
:1059200037AAFEF79DFE00287FF476A84B468EE648
:105930003846002200233146CDF820C0FEF756F944
:10594000DDF820C000287FF423AF0B9AC2F10103D9
:1059500042931EE70998594637AAFEF781FE0028B0
:105960007FF45AA84B46189A11985A60389A399978
:1059700018600132189838920918072A39913FF7B0
:1059800066A90833FFF716B80021159102F0AAFDA9
:105990009DF80F3120EAE0720E900B92FFF7A4B849
:1059A0005C60389A1F60511C399A38911219072986
:1059B0003992CFDC0833D6E716991198081A0E9061
:1059C000FFF789B8B8F1060F34BF4146062149F206
:1059D0005822C0F2000221EAE1730E9111920B935A
:1059E000FFF763B90998594637AAFEF739FE002830
:1059F0007FF412A84B463BE40998594637AAFEF7B4
:105A00002FFE00287FF408A84B46AFE509985946B9
:105A100037AAFEF725FE00287EF4FEAF4C4694E53B
:105A2000CDF8388028EAE8781590CDF82C809DF8DC
:105A30000F31FFF759B80E989DF80F3120EAE0704A
:105A40000B90FFF751B8149A652A14BF0023012365
:105A5000452A08BF43F00103002B32D008F10103AF
:105A60000B93022368E61498652862DD149A662A6F
:105A70001CBF429B0E936FD0189A0E9B9A425BDC20
:105A80001AF0010F40F0818023EAE37067210B9048
:105A90001491CFE6409B9C4598BF9C467FF689AE0B
:105AA000302203F8012B9C454093FAD881E60998EF
:105AB000594637AAFEF7D4FD00287EF4ADAF4B4619
:105AC00077E5CDF82C80023336E646F2676C0DF1AF
:105AD000F700C6F2666C8CFB0321DA17C2EBA10259
